:020000040800F2
:1000000000000220290200080D5200080F520008CB
:100010001152000813520008155200080000000099
:10002000000000000000000000000000175200085F
:1000300019520008000000001B5200081D52000861
:1000400079020008790200087902000879020008A4
:100050007902000879020008790200087902000894
:100060007902000879020008790200087902000884
:100070007902000879020008790200087902000874
:100080007902000879020008790200087902000864
:100090007902000879020008790200087902000854
:1000A0007902000879020008790200087902000844
:1000B0007902000879020008790200087902000834
:1000C0007902000879020008790200087902000824
:1000D0007902000879020008790200087902000814
:1000E0007902000879020008790200087902000804
:1000F0002D520008790200087902000879020008F0
:1001000079020008790200087902000879020008E3
:1001100079020008790200087902000879020008D3
:1001200079020008790200087902000879020008C3
:1001300079020008000000000000000079020008B9
:1001400079020008790200087902000879020008A3
:100150007902000879020008790200087902000893
:100160007902000879020008790200087902000883
:1001700079020008790200087902000800000000F6
:1001800000000000790200080000000000000000EC
:100190007902000800000000000000007902000859
:1001A00000000000000000000000000079020008CC
:1001B0007902000879020008790200087902000833
:0401C00079020008B8
:1001C40010B5054C237833B9044B13B10448AFF38D
:1001D40000800123237010BD1000002000000000E7
:1001E4001053000808B5034B1BB103490348AFF390
:1001F400008008BD00000000140000201053000817
:1002040010F8012B11F8013B012A28BF9A42F7D0BC
:10021400D01A7047034613F8012B002AFBD1181A91
:1002240001387047DFF834D0002103E00C4B5B58F1
:10023400435004310B480C4B42189A42F6D30B4AF4
:1002440002E0002342F8043B094B9A42F9D300F040
:1002540013F805F025F804F03FFD70470000022074
:1002640000560008000000201000002010000020AC
:10027400AC010020FEE700000F49D1F8883043F4B8
:100284007003C1F888300D4B1A68002042F0010257
:100294001A6098601A6822F0847222F480321A601C
:1002A400074A5A601A6822F480221A60D8604FF014
:1002B40000638B60704700BF00ED00E0003802402F
:1002C4001030002410B5084B044618684FF47A73B4
:1002D400B0FBF3F000F092F8002221464FF0FF301B
:1002E40000F04CF8002010BD0000002008B50B4BB6
:1002F4001A6842F400721A601A6842F480621A6042
:100304001A6842F480721A60032000F025F8002075
:10031400FFF7D8FF04F048FF002008BD003C02406E
:10032400024A136801331360704700BF580000206D
:10033400014B1868704700BF5800002013B50190A6
:10034400FFF7F6FF0446FFF7F3FF019B001B9842FB
:10035400F9D302B010BD0000074AD36823F4E06368
:100364001B041B0C43F0BF63000243F4003300F48E
:10037400E0600343D360704700ED00E0174BDB6897
:10038400C3F3022330B5C3F107041D1D042C28BF99
:100394000424062D4FF0010505FA04F404F1FF349A
:1003A4008CBF033B00230C409C4005FA03F3013B44
:1003B4001A40002842EA04024FEA0212AFBF00F1D9
:1003C400604000F00F00064BD2B2A5BF00F56140BB
:1003D400D2B21A5480F8002330BD00BF00ED00E013
:1003E40014ED00E04209012300F01F0003FA00F0BD
:1003F400014B43F82200704700E100E00138B0F1FE
:10040400807F0AD2064B074A5860F02182F82310F5
:100414000020072298601A6070470120704700BFCF
:1004240010E000E000ED00E0044B1A6804280CBF63
:1004340042F0040222F004021A60704710E000E067
:10044400704708B5FFF7FCFF08BD00002DE9F04F29
:10045400674F0B68DFF8A0C1DFF8A08185B00022E8
:100464000193BE460124019B944034EA030340F007
:10047400B7804D6825F0100ABAF1020F14D14FEA83
:10048400D20900EB890902F0070BD9F820604FEA82
:100494008B0B0F2303FA0BF326EA03060B6903FA0B
:1004A4000BF33343C9F820304FEA420B4FF00309F2
:1004B400036809FA0BF96FEA090905F0030603EA70
:1004C400090306FA0BF60AF1FF3A3343BAF1010FB6
:1004D40003600FD88368CE6809EA030306FA0BF6B3
:1004E4001E4386604368C5F3001623EA040396405E
:1004F40033434360C36809EA03098B6803FA0BF3C7
:1005040043EA0903C360EB006AD500230393DCF8D4
:100514004460384B46F48046CCF84460DCF84460D0
:1005240022F0030909F1804906F4804609F59C3953
:10053400039602F0030A039ED9F808B04FEA8A0A28
:100544000F2606FA0AF698422BEA060618D003F597
:100554008063984216D003F58063984214D003F563
:100564008063984212D003F58063984210D04045CE
:1005740010D003F50063984214BF072306230AE052
:10058400002308E0012306E0022304E0032302E041
:10059400042300E0052303FA0AF33343C9F80830BF
:1005A4003B68E64315F4803F0CBF33402343CEF849
:1005B4000030DEF8043015F4003F0CBF3340234311
:1005C4007B60BB6815F4801F0CBF33402343CEF817
:1005D4000830DEF80C30AD0254BF33402343FB60D7
:1005E4000132102A7FF43EAF05B0BDE8F08F00BFA2
:1005F400003C014000000240003802400014024068
:100604000369194214BF01200020704702B909048C
:100614008161704743695940416170470268536979
:1006240013F480630DD06FF4806353610423036477
:1006340020220023036380F83C3080F83D20012011
:100644007047184670472DE9F84304460E4617468E
:100654009946C1F307482568B8F1010F0CBF6869D2
:10066400A869C04380B2304214BF0120002048B3BF
:100674006B695A0512D52B6843F400732B606FF431
:1006840080636B610423236420220023236384F8A2
:100694003C3084F83D200120BDE8F8837B1CDAD08F
:1006A4004FB900232022236384F83C3084F83D2092
:1006B4000320BDE8F883FFF73BFEC9EB0000874247
:1006C400C9D2EEE7BDE8F8832DE9F843089D044656
:1006D4000E4690461F46C1F307492368B9F1010F3E
:1006E4000CBF58699869C04380B230420CBF0123E3
:1006F4000023434514D17B1CEFD05FB90023202293
:10070400236384F83C3084F83D20032084F83E3091
:10071400BDE8F883FFF70CFE401B8742DDD2EDE70E
:100724000020BDE8F88370B504460D4616462368DC
:100734005B691B0619D42046FFF770FFB8B96A1C21
:10074400F5D065B9236C43F02003236420220023F1
:10075400236384F83C3084F83D20032070BDFFF708
:10076400E7FD801B8542E2D2ECE7002070BD01204A
:1007740070BD70B504460D46164623685B695B0779
:1007840019D42046FFF74AFFB8B96A1CF5D065B9F9
:10079400236C43F02003236420220023236384F882
:1007A4003C3084F83D20032070BDFFF7C1FD801B61
:1007B4008542E2D2ECE7002070BD012070BD00004C
:1007C40070B50446002863D090F83D3003F0FF0272
:1007D4001BB980F83C2004F09BF822682D4D24239B
:1007E40084F83D30136823F00103136000F0E6F948
:1007F400636822682849B0FBF1F1AB422E4688BFFA
:100804004FF49675516082BF69434FF47A75B1FB1A
:10081400F5F1B34201F10101116208D85B00B0FBAC
:10082400F3F0C0F30B03032B98BF042016E0A16878
:1008340049B903EB4303B0FBF3F0C0F30B0363B11B
:1008440040F400400AE019214B43B0FBF3F0C0F33D
:100854000B0313B140F4404000E00120E169236A36
:10086400D0610B4313602169E3680B4393606169B2
:10087400A3690B43D360136843F0010313600020A2
:100884002023206484F83D30206384F83E0070BD4A
:10089400012070BDA086010040420F002DE9FF41F8
:1008A40004461F460D469046FFF742FD94F83D303E
:1008B400202B064601D00225BCE00090192301221A
:1008C4005E492046FFF700FF0028F4D194F83C303D
:1008D400012BF0D0012384F83C3023681A68D20736
:1008E4005EBF1A6842F001021A601A6822F40062BC
:1008F4001A60212284F83D20102284F83E20002230
:100904002264A2F580326785E262628D2285E26A02
:10091400C4F82480042A07D0012A05D012F5803FA8
:1009240002D0226B122A03D11A6842F480721A6030
:1009340000960A9B00224FF001112046FFF7C4FEE7
:1009440010BB23692268B3F5804F03D105F0FE057F
:1009540015610FE0EB1103F0060343F0F00313619C
:1009640037490A9A33462046FFF76DFE58B9236883
:10097400EDB21D6133460A9A32492046FFF763FE01
:100984000546002835D0236C236C042B4FF000035C
:1009940002D184F83C302AE084F83C30032549E055
:1009A400616A2068228D4B1C63620B780361638D3E
:1009B400013B9BB26385531E238543695B0720D4A7
:1009C40032460A992046FFF7D4FE40B9238D2BB353
:1009D40032460A992046FFF7A6FE0028E0D0236C91
:1009E400042BDBD12268136843F4007313600125E0
:1009F40020E0236803905A6903929B690393039B45
:100A0400E4E7002FDCD08B1C63624B780361638DB9
:100A1400013B9BB2023A63852285D1E721680A68CB
:100A240042F400720A60202284F83D2084F83C30AD
:100A340084F83E30284604B0BDE8F081020010007E
:100A44000800010002000100554B1A6802F00F0271
:100A54008A422DE9F04105460E460AD329688807E3
:100A640011D55048836823F0F002AB6813438360C8
:100A740009E0CAB21A701B6803F00F039942EDD063
:100A84000120BDE8F081C90706D4454B1A6802F07D
:100A94000F02964251D357E06B68424A012B03D1AF
:100AA400126812F4003F08E0991E0129126802D866
:100AB40012F0007F01E012F0020FE1D0394CA2687D
:100AC40022F003021343A360FFF732FC6B68012B8F
:100AD400074641F288380CD1A36803F00C03042BB9
:100AE400D3D0FFF725FCC01B4045F5D90320BDE852
:100AF400F081022B0AD1A36803F00C03082BC4D0A5
:100B0400FFF716FCC01B4045F5D9EFE7032B0FD1C7
:100B1400A36803F00C030C2BB7D0FFF709FCC01B30
:100B24004045F5D9E2E7FFF703FCC01B4045DDD89B
:100B3400A36813F00C0FF6D1A7E7F2B21A701B6882
:100B440003F00F039E429BD129684A0706D5154836
:100B5400836823F4E052EB68134383600B0707D5E3
:100B6400104A2969936823F4604343EAC1039360FC
:100B740000F0A0FC0B4BF0229B6892FAA2F2B2FAAE
:100B840082F203F0F003D340074AD35CD840074B0A
:100B940018600020FFF796FB0020BDE8F08100BF3D
:100BA400003C0240003802402853000800000020A6
:100BB400014B1868704700BF00000020084B4FF439
:100BC400E0529B6892FAA2F2B2FA82F203F4E05382
:100BD400D340044AD35C044A1068D840704700BF2D
:100BE40000380240285300080000002003682DE963
:100BF400F74F13F0010604460BD07D49866BD1F8FC
:100C04008C2022F0C0623243B6FA86F6C1F88C20FA
:100C140076099D070BD57648E16BD0F88C2022F03D
:100C2400C0520A430029C0F88C2008BF012613F0E3
:100C3400040512D06E49256BD1F88C20B5F5801FC0
:100C440022F4401242EA050218BFB5FA85F5C1F84C
:100C54008C2012BF6D0900250126180710D56448A1
:100C6400616BD0F88C2022F440020A43B1F5800F66
:100C7400C0F88C2003D0002908BF012500E001261C
:100C840099065CD500230193594B5A4F1A6C42F0D4
:100C940080521A641B6C03F080530193019B3B68E0
:100CA40043F480733B60FFF743FB80463B68DA05FF
:100CB40007D4FFF73DFBC8EB00000228F6D9032058
:100CC4006EE24B4F3B6F13F440730FD1226C02F46E
:100CD4004073B3F5407F464B28D1996821F4F8104E
:100CE40022F0704121F44071014322E0226C02F4AD
:100CF40040729342EAD03B6F3F4A0121116023F4D2
:100D04004073002111603B673B6FDB07DED5FFF7C3
:100D14000FFB41F2883980463B6F9807D6D4FFF722
:100D240007FBC8EB00004845F6D9C8E7996821F4E9
:100D3400F8119960196FC2F30B020A431A6723680A
:100D4400D90642BF2D4B94F858201A6023681A061E
:100D540008D52748D0F8942022F44001E26C0A43D5
:100D6400C0F894205F0608D52148D0F8942022F0DA
:100D74008061A26C0A43C0F89420D8050CD51C48A5
:100D8400616DD0F8942022F000620A43B1F1006F43
:100D9400C0F8942008BF0125990508D51448D0F857
:100DA400942022F08051626C0A43C0F894205A05C2
:100DB40002D4012E14D10BE00D48216DD0F89420FB
:100DC40022F000520A43B1F1005FC0F89420F0D140
:100DD4000B4E074F00233360FFF7AAFA804618E052
:100DE400B3F5006FF4D0012D40F05B813FE100BF0B
:100DF4000038024000700040400E4742E011474274
:100E040068004742FFF794FAC8EB000002283FF657
:100E140056AF3B681B01F5D42068C70701D5A36B07
:100E240023B1810745D5E36B002B42D1DFF878E38A
:100E34004FF44033DEF8841093FAA3F24FF0706954
:100E4400B2FA82F8DEF8842099FAA9FA47F6C07754
:100E5400BAFA8AFA97FAA7F7B7FA87F793FAA3F3D5
:100E6400B3FA83FC99FAA9F94FF0E04BB9FA89F97E
:100E74009BFAABFBA36803FA07F76369BBFA8BFB26
:100E840003FA0BF31F4302F07062636822FA0AF25A
:100E94003B4302FA09F701F4403222FA08F2013224
:100EA40022F00042013A1F4302FA0CF33B43CEF80E
:100EB4008430420703D5236BB3F5801F05D00307A5
:100EC4004FD5636BB3F5800F4BD1DFF8DCE24FF401
:100ED4004033DEF8841093FAA3F24FF0E049B2FAFB
:100EE40082F8DEF8842099FAA9FA47F6C077BAFAAC
:100EF4008AFA97FAA7F7B7FA87F793FAA3F34FF0AA
:100F0400706BB3FA83FC9BFAABFBBBFA8BFB99FACD
:100F1400A9F9A36803FA07F7236903FA0BF31F433C
:100F240002F0E042636822FA0AF2B9FA89F93B4313
:100F340002FA09F701F4403222FA08F2013222F0EF
:100F44000042013A1F4302FA0CF33B43CEF88430CB
:100F5400DEF88C30A26A23F01F03013A1343CEF863
:100F64008C30470545D5236DB3F1005F41D1DFF8DF
:100F740038E24FF44033DEF8841093FAA3F24FF0D2
:100F8400E049B2FA82F8DEF8842099FAA9FA47F621
:100F9400C07BBAFA8AFA9BFAABFBBBFA8BFB93FAD7
:100FA400A3F34FF0706CB3FA83F39CFAACFCBCFA75
:100FB4008CFC99FAA9F9E7687F08013F9F40A36870
:100FC40003FA0BF31F4302F0E042636822FA0AF2C9
:100FD400B9FA89F93B4302FA09F701F4403222FADB
:100FE40008F2013252001F4302FA0CF33B43CEF8DD
:100FF400843001052BD547F6C07292FAA2F24FF461
:101004004033B2FA82FE93FAA3F34FF07061B3FA5D
:1010140083FC91FAA1F14FF0E042B1FA81F792FA20
:10102400A2F2E3686168B2FA82F05B08A268013B4D
:1010340002FA0EF203FA0CF313430B4321696269BB
:10104400B94019438240584B0A43C3F88420012312
:101054003360FFF76DF9544E074633681A013FF5C4
:10106400C2AEFFF765F9C01B0228F6D927E64F4D3B
:101074004D4E00232B60FFF75BF9074633689B0056
:1010840011D42068460714D4010715D4C2054FD4DF
:1010940001232B60FFF74CF9434C054623689B0062
:1010A40077D500207CE0FFF743F9C01B0228E5D97F
:1010B40005E6236B1BB1E7E7636B002BE6D13A49E6
:1010C4004FF44037D1F8882097FAA7F347F6C07C4D
:1010D400B3FA83F39CFAACFCBCFA8CFC97FAA7F73E
:1010E4004FF07066B7FA87F796FAA6F6B6FA86FE58
:1010F400E66902F4403222FA03F306FA0CF2666A55
:10110400013306FA0EF6164323F00043A269013BAD
:101114003243BB401343C1F88830D1F88C30E26AC3
:1011240023F4F853013A43EA0223C1F88C30ADE7C3
:10113400636DB3F1006FABD11B4F4FF07060D7F804
:10114400882090FAA0FE47F6C076BEFA8EFE96FA84
:10115400A6F64FF44031B6FA86FC91FAA1F1B1FA41
:1011640081F690FAA0F0216AA36949080139B140D7
:10117400E66902F0706206FA0CF6B0FA80F03143C8
:1011840022FA0EF2194302FA00F30B43C7F888302F
:101194007EE7FFF7CDF8401B02287FF67FAF8EE590
:1011A40003B0BDE8F08F00BF003802407000474232
:1011B40003682DE9F341DE07044603D423689D0741
:1011C40040D499E0A64B9A6802F00C02042A10D08D
:1011D4009A6802F00C02082A02D15B68580208D40B
:1011E4009F4A936803F00C030C2B0BD153685902EC
:1011F40008D59B4B1B689A03E0D56368002BDDD1AF
:10120400012054E1974B22791A7063686BB1FFF7A0
:101214008FF8934D06462B689B03CFD4FFF788F8CD
:10122400801B6428F7D9032041E1FFF781F88C4D36
:1012340006462B689F03C1D5FFF77AF8801B642804
:10124400F7D9F0E7864B9A6812F00C0F10D09A6821
:1012540002F00C02082A02D15B68580208D5804AC1
:10126400936803F00C030C2B17D15368590214D460
:101274007B4B1A68920702D5E268012AC0D11A682A
:10128400F82191FAA1F12069B1FA81F100FA01F192
:1012940022F0F8020A431A602EE0E268724BEAB1C7
:1012A40001221A60FFF744F86D4D06462B686C481E
:1012B4009B0705D4FFF73CF8801B0228F6D9B2E758
:1012C4000368F82292FAA2F22169B2FA82F201FAD0
:1012D40002F223F0F803134303600DE01A60FFF7F2
:1012E40027F85F4D06462B689F0705D5FFF720F8C2
:1012F400801B0228F7D996E723681E0703D42368C6
:101304005D0745D51FE06269584B72B101221A602E
:10131400FFF70EF8524D06466B6F9807EFD4FFF7B0
:1013240007F8801B0228F7D97DE71A60FFF700F859
:101334004B4D06466B6F9907E1D5FEF7F9FF801B0D
:101344000228F7D96FE700230193454B484D1A6CE7
:1013540042F080521A641B6C03F080530193019B8A
:101364002B6843F480732B60FEF7E2FF06462B687C
:10137400DA0510D53F4B227A1A70A368BBB1FEF789
:10138400D7FF374D064641F288372B6F9B0708D5A8
:10139400A269DAB962E0FEF7CBFF801B0228E6D926
:1013A40041E7FEF7C5FF801BB842EED93BE7FEF7E5
:1013B400BFFF2B4D064641F288372B6F9807E7D5C0
:1013C400FEF7B6FF801BB842F7D92CE7244DAB6873
:1013D40003F00C03082B3FF413AF274E0023022A1B
:1013E400336058D1FEF7A4FF80462B681C4F990147
:1013F40044D447F6C07292FAA2F24FF44033B2FAE0
:1014040082FC93FAA3F34FF07061B3FA83FE91FA6E
:10141400A1F14FF0E042B1FA81F592FAA2F2E36948
:10142400B2FA82F0226A43EA0201626AA36A02FA09
:101434000CF211435A08013A02FA0EF30B43E16A23
:10144400226BA9400B43824013437B60012333602A
:10145400FEF76EFF04463B689A0116D5002026E08D
:10146400003802400238024000004742800E4742E2
:10147400007000407038024060004742FEF758FF99
:10148400C8EB00000228B0D9CDE6FEF751FF001BDF
:101494000228E0D9C7E6FEF74BFF04462B689B0100
:1014A400DCD5FEF745FF001B0228F7D9BBE602B0E6
:1014B400BDE8F0813049886800F00C00082808D0A5
:1014C4000C282FD02D4A2E4B04280CBF184610464A
:1014D400704748684B6800F03F0013F4800F47F6EC
:1014E400C0724B6892FAA2F247F6C071B2FA82F265
:1014F40001EA030121FA02F114BF214A1F4AB2FB97
:10150400F0F01D4A00FB01F352684FF4403090FAAA
:10151400A0F0B0FA80F002F4403222FA00F0013078
:10152400400025E048684B6800F03F0013F4800F4A
:1015340047F6C0724B6892FAA2F247F6C071B2FA4B
:1015440082F201EA030121FA02F114BF0C4A0B4AA8
:10155400B2FBF0F0084A00FB01F352684FF0E040A0
:1015640090FAA0F0B0FA80F002F0E04222FA00F023
:10157400B3FBF0F0704700BF003802400024F400D1
:1015840000127A0003685A6B12F0450FFBD05A6BB5
:10159400520703D504229A6303207047586B10F056
:1015A400010015BF012040F2FF5298639A6370470F
:1015B40070B5436A86B01B0401930D23054602935C
:1015C4004023002203930E464FF4806301A9006870
:1015D40000920492059301F068F82868436B13F0B5
:1015E400450FFBD0436B5B0703D5042383630320C0
:1015F4007CE0436B13F0010403D00123836318469A
:1016040074E001F065F80D2801D010206EE02B681D
:1016140040F2FF529A63204601F05EF80090009B6E
:101624003348C3F343233370009B184000285DD034
:10163400009B002B39DB009B5D0038D4009B9C0091
:1016440037D4009BD90036D4009B1A0135D4009BB3
:101654005B0134D4009BDE0133D4009B1D0232D4E1
:10166400009B5C02D1D4009B99022ED4009BDA0229
:101674002DD4009B1B032CD4009B5E032BD4009B16
:101684009D032AD4009BDC0329D4009B190428D48D
:10169400009B5A0427D4009B9B0426D4009B13F080
:1016A400080F0CBF00201A2020E01C201EE0092097
:1016B4001CE00A201AE00B2018E00C2016E00D2094
:1016C40014E00E2012E00F2010E011200EE0122092
:1016D4000CE013200AE0142008E0152006E0162090
:1016E40004E0172002E0182000E0192006B070BDC5
:1016F40008E0FFFD70B5054600680E46436B13F025
:10170400450FFBD0436B5B0703D50423836303209E
:1017140070BD436B13F0010402D00123836339E0ED
:1017240000F0D6FFB04201D0102070BD2B6840F20B
:10173400FF529A63204600F0CFFF284B03404BB37F
:10174400002829DB450029D4840029D4C10029D4E8
:10175400020129D4430129D4C60129D4050229D47C
:101764004402E1D4810227D4C20227D4030327D43C
:10177400460327D4850327D4C40327D4010427D4DC
:10178400420427D4830427D410F0080F0CBF002090
:101794001A2070BD184670BD1C2070BD092070BD94
:1017A4000A2070BD0B2070BD0C2070BD0D2070BDD3
:1017B4000E2070BD0F2070BD112070BD122070BDB1
:1017C400132070BD142070BD152070BD162070BD8F
:1017D400172070BD182070BD192070BD08E0FFFDF2
:1017E400F0B58FB0002305460193029310244022E4
:1017F40006930E464FF4806303A9082700680397F5
:1018040004940592079300F050FF21462846FFF701
:1018140071FF002858D16B6A2868A34003A93724B4
:101824000393049400F041FF21462846FFF762FF2A
:101834000446002848D14FF0FF33089330230A931D
:1018440002230B930C90012308A928680D93099790
:1018540000F04EFF039403A933242868049400F095
:1018640024FF21462846FFF745FF68BB6C462868DD
:10187400426B40F22A4313403BB9436B9902F7D5BC
:1018840000F003FF44F8040FF1E7436B1A0703D594
:1018940008238363042017E0436B9B0702D50223CC
:1018A400836310E0436B13F0200303D0202383638E
:1018B400062009E040F2FF528263019A12BA726074
:1018C400029A12BA326018460FB0F0BD026A81F86B
:1018D4005620426AA1F85420826A0346900F087089
:1018E400C2F38360C2F3016248708A7093F82A20BD
:1018F400CA7093F829200A7193F828204A71DA6A89
:10190400100E0001C880C888F0B580B2C2F3035439
:101914002043C2F30342C8800A7293F82D20D009F1
:101924004872C2F380108872C2F34010C872C2F3C6
:1019340000100873002048731C6A012C3CD89202E2
:1019440002F440620A61DA6A0C69920002F47F725E
:1019540022430A610C691A6B44EA92740C61C2F363
:10196400C264C2F302620C754A755A8ED4B2520034
:10197400650902F00602C4F382048D75CC750A76FB
:101984000C7E93F8312044EAD2140C760C6991F859
:1019940018E0661C0C7A012505FA04F40EF1020E17
:1019A40005FA0EFE0C65A6FB0445AEFB04670EFBB0
:1019B4000577C1E9126723E0022C20D1DA6A120408
:1019C40002F47C120A611A6B0C69150E44EA0524B0
:1019D4000C610C69C2F307452C430C610C690025AA
:1019E400013445F10005ED0445EA5435E4048C6402
:1019F4004FF40074C2F30722CD640C6500E0292083
:101A0400C2F38014520002F07E024C768A761A6B7E
:101A14008D7EC2F3C0142C4302F07F028C76CA760A
:101A24005A6BD40F0C77C2F341744C77C2F38264BF
:101A3400920D02F00C028C77CA77DA8ECD7FD4B285
:101A440045EA9415C4F34014CD7702F0010281F8FD
:101A54002040002481F8214081F822205C6B240A74
:101A6400E2B2D50981F82350C2F3801581F82450DD
:101A7400C2F3401581F8255004F00304C2F30015A5
:101A8400C2F3810281F8265081F8272081F828408A
:101A94005A6B0124C2F3460281F8292081F82A40B6
:101AA40093F83B2081F82C209A6BC2F307452D0252
:101AB400CD85CD8DAEB2C2F3072535431206CD8553
:101AC4000A63DA6B0D6B160E45EA06450D630E6B61
:101AD400150A05F47F4535430D630D6BC2F30726E4
:101AE4003543D2B20D6381F8342093F8432081F852
:101AF40035201A6C150C2D068D638E6B150205F4BA
:101B04007F0535438D638D6B120202F47F422A43B5
:101B14008A638D6B5A6C45EA12658D6391F83C506B
:101B2400C2F3074245EA1215120202F4706281F808
:101B34003C50CA875B6CCA8F95B2C3F307222A4311
:101B4400C3F34603CA8781F8403081F84140F0BDB1
:101B54002DE9F04F002591B0057704460E468DF827
:101B6400125003F0EDFA76230F930D950E9510ABFA
:101B740013E907008DE807000A950B950C959E4F15
:101B840020680AAB0ECB00F065FD8DF81350206879
:101B94003D6000F082FD0120FEF7D0FB01233B6095
:101BA40005A94FF480632068099305950695079568
:101BB400089500F07AFD2068436B4FF48032C3F33C
:101BC400C013002B40F07E81436B013AC3F3C01372
:101BD400F7D103238DF813309DF8133003F0FF057C
:101BE400002B40F0A3804FF4D5730593082306938C
:101BF40005A94023079300F058FD2068436B13F0B8
:101C0400450F14BF012200224FF4803342B93BB187
:101C1400426B12F0450F14BF01220022013BF5E78D
:101C2400426B0BB1570703D504238363032505E0F7
:101C3400436B590646BF4023836329258DF813500F
:101C44009DF81320002322B9012222624FF080451F
:101C540000E01D46372705A90593069700F025FDEA
:101C640039462046FFF746FD8DF813009DF81330E2
:101C740003F0FF08002B59D145F00045C14645F457
:101C84008015372705A94FF0400B4FF4806A206870
:101C94000697CDF81490CDF81CB0CDF82090CDF86F
:101CA40024A000F002FD39462046FFF723FD8DF8FD
:101CB40013009DF8133003F0FF07002B36D12923BE
:101CC40005A9206806930595CDF81CB00897CDF8B2
:101CD40024A000F0EAFC23685A6B12F0450FFBD0F5
:101CE4005A6B520745BF0422032740F2FF529A63FE
:101CF40058BF9A638DF813709DF8133003F0FF00FA
:101D0400A3B900F0E9FC002808F101084FF6FF73BD
:101D140002DB9845B5D101E0984503D11B238DF82A
:101D2400133003E0430044BF022323629DF81330C1
:101D3400DBB28DF812309DF8123003F0FF05002B52
:101D440040F0BA80206800F0ACFC002800F08080ED
:101D5400236A042B20D002230693C023079305A9EA
:101D64004FF48063206805950895099300F09DFC65
:101D74002046FFF707FC00286CD100F0ADFCA063FF
:101D8400042000F0A9FCE063082000F0A5FC206416
:101D94000C2000F0A1FC6064236A022B01D9062BFD
:101DA40032D10323069305A940232068079300F04A
:101DB4007CFC2068436B13F0450FFBD0436B5F073B
:101DC40003D504238363032545E0436B13F0010724
:101DD40002D0012585633EE000F07AFC032876D129
:101DE400236840F2FF529A63384600F075FC10F401
:101DF400604F03D1000C08E0A0802542810468D420
:101E0400420464D4030466D40120236A042B22D040
:101E14006062092300040590069305A9C023206885
:101E2400079300F042FC2046FFF7ACFB054690B94F
:101E340000F052FCA062042000F04EFCE062082096
:101E440000F04AFC20630C2000F046FC606302E0D2
:101E5400252500E005468DF812509DF812305BBB35
:101E640031462046FFF732FD8DF812009DF81230FE
:101E740003F0FF02ABB9B6F85430206808921B0493
:101E8400059340230725079305A94FF4806309931D
:101E9400069500F00AFC29462046FFF72BFC8DF836
:101EA400120004F1100393E807008DE80700231DD6
:101EB4000ECB206800F0CEFB9DF81200C0B211B02A
:101EC400BDE8F08F40F2FF538363002382E61025C0
:101ED400C1E71325BFE70F25BDE700BFF0B5036ACF
:101EE400032B8DB005460E4600F08480022B00F2D1
:101EF4008380B1F5805F00F08180B1F5006F29D156
:101F040000200490059000F0E7FB80016ED404A942
:101F14002846FFF765FC0446002872D1059B590347
:101F240066D56B6A09901B040693402337270893F0
:101F340006A94FF4806328680A93079700F0B5FB5D
:101F440039462846FFF7D6FB0446002859D1022318
:101F5400069329E0002953D108460491059100F025
:101F6400BBFB820142D404A92846FFF739FC04468E
:101F7400002846D1059BDB033AD56B6A09901B0404
:101F8400069340233727089306A94FF480632868F3
:101F94000A93079700F089FB39462846FFF7AAFB06
:101FA400044600282DD10690062406A92868079423
:101FB40000F07BFB21462846FFF79CFB044600BB50
:101FC4006B680693AB680793EB6808936B690A9395
:101FD400AB690B9309960CAB13E907008DE8070076
:101FE40006AB0ECB286800F035FB0AE00E2408E0AF
:101FF400252406E0272005E0002003E0272400E054
:10200400262420460DB0F0BD30B587B00023402211
:10201400044601930C25049301A94FF480630068DE
:1020240003920593029500F040FB29462046FFF7F2
:1020340061FB07B030BD2DE9F04304460068174644
:102044000022C262226A022A8DB004BF7F0A47EAD4
:10205400C3574FF0400303934FF00003DDF8508063
:10206400049308BF4FF4007810264FF480630D46A4
:1020740001A902960593DDF85490CDF8048000F090
:1020840014FB31462046FFF735FB0646002840F096
:1020940087804FF0FF33069309FB08F307939023DF
:1020A4000893022309930A90012306A920680B933D
:1020B40000F01EFBB9F1010F8CBF1223112301A9FB
:1020C40020680293019700F0F0FAB9F1010F19D9D1
:1020D40012212046FFF70EFB002862D123685A6BB9
:1020E40012F4957F29D15A6B1204F8D52F1F05F1EC
:1020F4001C08206800F0C9FA47F8040FB845F8D165
:102104002035EBE711212046FFF7F4FA002848D1E7
:102114002268516B40F22A430B4073B9536B1B0482
:10212400F7D52F1F05F11C08206800F0AEFA47F818
:10213400040FB845F8D12035EAE723685B6BDF0567
:1021440009D5B9F1010F06D9236A022B03D8204619
:10215400FFF75AFF064623685A6B100703D5082277
:102164009A6304201DE05A6B910702D502209863FC
:1021740017E05A6B920602D44FF0FF3709E0202291
:102184009A6306200DE047B100F07FFA45F8040B8E
:10219400013F2068436B9B02F5D440F2FF538363F5
:1021A40030460DB0BDE8F0832DE9F04705468CB00C
:1021B4000068DDF85080159F144600228DF8032036
:1021C400C2622A6A022A04BF640A44EAC3544FF072
:1021D400400303934FF0000308BF4FF400784FF01F
:1021E400100904930E464FF4806301A9CDF80480CE
:1021F400CDF80890059300F058FA49462846FFF7B1
:1022040079FA002840F0B980012F8CBF19231823D4
:1022140001A928680293019400F047FA012F8CBFAA
:10222400192118212846FFF765FA0446002840F0D2
:10223400A4804FF0FF3306939023089309900A90EB
:10224400012307FB08F806A92868CDF81C800B9326
:1022540000F04EFA012F3ED92A68536B13F48D799E
:1022640032D1536B5B04F8D5C4EB08031F2B13D88E
:1022740013F0030F4FEA930318BF01334FEA8309A6
:1022840006EB090A564505D03146286800F000FAE5
:102294000436F7E74C440CE006EB0901286809F121
:1022A400040900F0F5F9B9F1200FF5D106F1200A7F
:1022B40020345646D0E7596B49040ED4596B40F28A
:1022C4001A420A40002AF6D02B685B6BD80529D441
:1022D40030E04C4456462B68F0E7C4EB08031F2B50
:1022E40011D813F0030F4FEA930318BF01334FEAD9
:1022F400830906EB090A5645EBD03146286800F0FD
:10230400C7F90436F7E7914606EB0901286809F195
:10231400040900F0BDF9B9F1200FF5D106F1200A46
:102324002034D7E7012F05D92B6A022B02D828467F
:10233400FFF76AFE2B685A6B100703D508229A63CD
:1023440004201AE05A6B910702D50220986314E026
:102354005A6BD20603D510229A6305200DE040F291
:10236400FF529A630DF103012846FFF721F920B9C2
:102374009DF80330063B012BF4D90CB0BDE8F0877F
:1023840030B5436A87B01B040193402303930023B1
:1023940004460D25049301A94FF480630068029557
:1023A400059300F082F929462046FFF7A3F938B9CE
:1023B40000F092F9C0F34320043818BF012000E074
:1023C400022007B030BD0368DA6842F00102DA6027
:1023D4001A6842F001021A60002070470368DA6844
:1023E40022F00102DA60196A41F211120A4042B97C
:1023F400196A40F244420A401AB91A6822F00102EA
:102404001A60002070477047704770477047036830
:102414001A69910710B5044614D5DA68920711D5E4
:102424006FF002021A619B6901229B07027602D0B7
:10243400FFF7EAFF04E0FFF7E6FF2046FFF7E5FFBA
:102444000023237623681A69500716D5DA685107E2
:1024540013D56FF004021A619B69022213F4407FC2
:102464002276204602D0FFF7CFFF04E0FFF7CBFF30
:102474002046FFF7CAFF0023237623681A69120750
:1024840015D5DA68100712D56FF008021A61DB69F6
:10249400042299072276204602D0FFF7B5FF04E014
:1024A400FFF7B1FF2046FFF7B0FF00232376236830
:1024B4001A69D20616D5DA68D00613D56FF0100261
:1024C4001A61DB69082213F4407F2276204602D089
:1024D400FFF79AFF04E0FFF796FF2046FFF795FF0A
:1024E4000023237623681A69D10708D5DA68D2074E
:1024F40005D56FF001021A61204602F001FE23683F
:102504001A69100608D5DA68110605D56FF080023D
:102514001A61204600F09DF823681A69520608D50E
:10252400DA68500605D56FF040021A612046FFF7BD
:102534006DFF23681A6991060AD5DA68920607D5F1
:102544006FF0200220461A61BDE8104000F080B808
:1025540010BD00002E4A0368904212D0B0F1804FA3
:102564000FD0A2F57C4290420BD002F580629042DB
:1025740007D002F58062904203D002F5784290427F
:1025840018D14A6823F070031343214A904237D08C
:10259400B0F1804F34D01F4A904231D002F58062AE
:1025A40090422DD002F58062904229D002F5784203
:1025B400904225D0184A904222D002F5806290427F
:1025C4001ED002F5806290421AD0A2F59832904251
:1025D40016D002F58062904212D002F580629042D9
:1025E4000ED003608B68C3620B688362084B984209
:1025F4000BD003F58063984207D0012343617047F1
:10260400CA6823F440731343EBE70B690363F4E7ED
:1026140000000140000400400040014010B50446A1
:10262400A0B190F8393003F0FF021BB980F83820CC
:1026340002F018FE022384F839302068211DFFF7C8
:1026440089FF012384F83930002010BD012010BD1A
:102654007047704784B010B503AC84E80E00049B47
:1026640042681943059B1943069B1943079B194369
:10267400089BBDE81040194322F4FD4323F07F0377
:102684000B43436004B000207047D0F880007047CB
:102694000B68C0F8803000207047032303600020DB
:1026A4007047006800F0030070470B6810B5836042
:1026B4004C688B68C2681C43CB680969234319437F
:1026C40022F47F6323F00F030B43C360002010BD8B
:1026D4000069C0B27047000082B000230193034B2D
:1026E40003440193019B186802B07047142C014005
:1026F40010B5CA688C680B68436214434B680A6956
:102704008362C36A14434A6923F0F70322431343E1
:10271400C362002010BD0000034B1A1803EB8003B2
:10272400107A5B685B6818474C000020064B1A5C03
:1027340042B901221A541A1803EB8003107A5B6819
:102744001B681847002070474C00002030B4054C2B
:10275400251804EB800460688468287AA44630BC99
:10276400604700BF4C00002030B4054C251804EB32
:1027740080046068C468287AA44630BC604700BFFF
:102784004C000020054B10B41C1803EB8003207A86
:102794005B685DF8044B1B69184700BF4C000020C0
:1027A40010B5064C0123237001F0DAFE234618B954
:1027B400227802F0FE022270187810BD0400002076
:1027C40010B5064C0123237001F00AFF234618B903
:1027D400227802F0FE022270187810BD0400002056
:1027E40007B501934FF40073009352020023084687
:1027F40001F0D2FE003018BF012003B05DF804FBE5
:1028040007B501934FF40073009352020023084666
:1028140001F0D4FE003018BF012003B05DF804FBC2
:1028240010B5134B1B78DB0796B014461AD4032952
:1028340003D8DFE801F019040E12042015E06846FD
:1028440001F0D4FE129B139A5B0A43EAC25323603D
:102854000AE04FF40073138006E04FF40073136032
:10286400012002E0032000E0002016B010BD00BFEC
:102874000400002001380A44914204D011F8013BBD
:1028840000F8013FF8E770470244904202D000F894
:10289400011BFAE77047000070B5194A002423466B
:1028A40052F8045C75B1D0F80062B5420BD11668D9
:1028B400D0F80852AE4206D19688B0F80652AE421D
:1028C40001D106E001240133022B02F10C020ED0E7
:1028D400E6E751B90B4A0C2101FB03235B89B3F5ED
:1028E400807F14BF0020102070BD102070BD24B95B
:1028F40002290CBF0020122070BD002070BD00BF53
:10290400340000203000002070B5234AD0F8006263
:10291400002352F8044CB44209D11568D0F8084297
:10292400A54204D19588B0F80642A54205D00133EA
:10293400022B02F10C0208D0EBE7C9B117490C22B3
:1029440002FB0312528922BB1AE0144A136813B122
:10295400D368F3B901230C245C4315191651D0F83C
:1029640008226A60B0F806222A8100226A8139B9F5
:102974000A490C2202FB03125289013292B201E08D
:102984004FF4807205480C2101FB0301581C4A8155
:1029940070BD002070BD00BF340000203000002056
:1029A40010B5441E012C11D80A4A0C2303FB042140
:1029B400498921F4807080B208B1013988B2634337
:1029C4001A44508120B9034AD05010BD022010BDD2
:1029D400002010BD30000020D0F82432D0F80022AE
:1029E4000433490A92F80202B1FBF0F1186830B1DD
:1029F400814202D3091A0833F8E75B68C8187047A4
:102A0400026810B58AB111460B4611F8014B202C0F
:102A140009D93A2CF8D1511C8B4206D11278302AAC
:102A240003D101330360002010BD4FF0FF3010BD0F
:102A340008B590B1D0F800327BB193F8002262B1AE
:102A4400B3F80612B0F80422914206D193F80102B9
:102A5400FFF762FE10F0010000D0092008BDCA7E15
:102A64008B7E032843EA022301BF487D0A7D42EAA4
:102A7400002243EA02431846704770B5D0F82C523E
:102A84000446014601232A4690F80102FFF76CFE32
:102A9400D0B9D4F82032D4F8182284F80402EB1AFE
:102AA400934201D3002070BD94F80362012EF9D93A
:102AB400D4F8183294F801021D442A460123214611
:102AC400FFF752FE013EF1E7012070BD90F8043299
:102AD4000BB1FFF7D2BF1846704738B50446FFF76D
:102AE400F5FF0546002852D194F80032032B45D156
:102AF40094F80532012B41D101464FF4007220466F
:102B0400FFF7C2FE552284F8FE21AA2284F8FF2191
:102B14005222227062706122A27084F8E721D4F8F4
:102B2400102284F8E8214121E17084F8E6111112A1
:102B340084F8E911110C120E84F8EB21D4F80C225C
:102B440084F8EA11111284F8EC2184F8ED11110CC7
:102B5400120E84F8EF21D4F81C2284F8EE117220AE
:102B6400013284F8E40184F8E501C4F82C222146FA
:102B740094F80102FFF7F8FD84F80552002211468B
:102B840094F80102FFF7FEFD003018BF012038BDA4
:102B9400D0F82C328B4270B506460D4612D0FFF7A2
:102BA40095FF044678B92A460123314696F8010276
:102BB400FFF7CCFD00281CBF4FF0FF350124C6F8F9
:102BC4002C5200E00024204670BD0000002310B504
:102BD40080F804324FF0FF33C0F82C320446FFF77C
:102BE400D7FFC0B994F8FF2194F8FE3143EA0223D9
:102BF4004AF65522934210D1D4F83630084A23F0CD
:102C04007F4393420AD0D4F8520020F07F40801AC8
:102C140018BF012010BD032010BD022010BD00BF4D
:102C2400464154002DE9FF4100230360074608464E
:102C34001646FFF7E5FE051EC0F21381A04B53F8BC
:102C44002540002C00F00F813C6094F800326BB1F9
:102C540094F80102FFF760FDC70707D4002E00F0C7
:102C6400BD80410740F1BA800A2026E10023E8B282
:102C740084F8003284F80102FFF758FDC20700F11E
:102C8400F480002E40F0AC8000212046FFF79EFF28
:102C9400012840F0AF8004F5E371002211F8043CF0
:102CA40003B10B684DF822300132042A01F11001FE
:102CB400F4D100265DF82650002D00F095802946B9
:102CC4002046FFF783FF002840F08F80227BE37AC1
:102CD40043EA0223B3F5007F40F08F80A37D94F88C
:102CE40010C0E07D84F803C253EA00200CF1FF33E6
:102CF40008BF606AC4F81802012B7ED8637B84F88D
:102D04000232002B79D05A1E1A4276D194F812E07E
:102D1400627C42EA0E2E1EF00F0FA4F808E26CD17A
:102D2400217DE27CE67B52EA0122A17B08BF226A74
:102D340051EA062161D000FB0CFC01EB1E1767442D
:102D4400BA425AD3D21BB2FBF3F3002B55D040F650
:102D5400F572934203F1020601EB05022F4440F29F
:102D64008A804FF6F5718B4240F28880C4F8146271
:102D7400C4F81C52C4F82022C4F82872BEF1000F13
:102D84003BD1E36AC4F824324FF00308B30003F2E2
:102D9400FF13B0EB532F30D34FF0FF33C4F810328E
:102DA400C4F80C32B8F1030F4FF0800384F80532F5
:102DB40027D0444A84F80082138801339BB21380DD
:102DC400A4F80632404B1A68944204BF00221A60E9
:102DD400DB689C4202D13C4B0022DA6000206CE0AC
:102DE40043073FF541AF4FE702200136042E7FF43D
:102DF40061AF3CE003283CD008B10D205DE00546FE
:102E040064E794F8312094F8303043EA0223012B2C
:102E1400CFD1691C2046FFF7BBFE0028C9D194F826
:102E2400FF2194F8FE3184F8050243EA02234AF6AE
:102E340055229342BDD12268244B9A42B9D103F161
:102E4400FF53D4F8E42103F5005320339A4201BF21
:102E5400D4F8E831C4F81032D4F8EC31C4F80C32A8
:102E6400A7E70B2029E00C2027E0032025E0032816
:102E7400C3D1012021E04FF0010801E04FF0020826
:102E8400C4F81462C4F81C52C4F82022C4F828728E
:102E9400BEF1000FB1D0B8F1020F4FEA460318BFDC
:102EA4009B19624418BF06F00106C4F824221CBF13
:102EB40006EB53034FF0010869E704B0BDE8F08165
:102EC400480000202C0000203000002052526141B4
:102ED400D0F814320239023B99423DBF90F80232D5
:102EE400D0F8280201FB0300002070470129F8B53F
:102EF40006460D4659D9D0F81432994255D290F865
:102F04000032022B27D0032B36D0012B4DD101EBFD
:102F14005104D0F8201201EB5421FFF739FE10B10F
:102F24004FF0FF30F8BDD6F82012671CC4F3080434
:102F340001EB57213046345DFFF72AFE0028EFD11C
:102F4400C7F30807EB07F05D44EA00204CBF000913
:102F5400C0F30B00F8BDD0F8201201EB1521FFF7E8
:102F640017FE0028DCD16D0005F4FF75731958783D
:102F7400735D43EA0020F8BDD0F8201201EBD511AF
:102F8400FFF706FE0028CBD1AD0005F4FE757319DA
:102F94009878DA785B78000440EA026040EA03201B
:102FA400735D184320F07040F8BD0120F8BDD0F8DF
:102FB400082270B50446012A0D46A4F8061201D170
:102FC400022070BDD0F80032D3F814128A42F7D22E
:102FD40072B993F80012032902D1D3F8241231B93B
:102FE400B3F808128D42EBD2D3F8240219E00A4652
:102FF40093F802623601B5421146D4F800020ED3AA
:10300400FFF774FF431C02461DD00128D8D9D4F819
:103014000032D3F814329842D2D2AD1BEBE7FFF75B
:1030240057FFC4F80C220028CAD0D4F8003200EBB1
:10303400151005F00F0503EB4515C4F81002C4F88C
:103044001452002070BD012070BD01292DE9F0410A
:1030540005460C4616466BD9D0F81432994267D20D
:1030640090F80032022B38D0032B45D0012B5FD1CE
:1030740001EB5108D0F8201201EB5821FFF788FD2D
:10308400002856D108F10107C8F3080814F0010418
:103094001FBF15F8083003F00F0343EA0613DBB231
:1030A40008BFF3B205F80830D5F82012012385F8DB
:1030B400043201EB57212846FFF76AFDC8BBC7F36A
:1030C400080714B1C6F3071205E0EA5D22F00F0306
:1030D400C6F303221A43EA5525E0D0F8201201EB87
:1030E4001421FFF755FD20BB640004F4FF74321271
:1030F4002E552C44627016E0D0F8201201EBD41146
:10310400FFF746FDA8B9A40004F4FE742B19DA787D
:10311400120602F07042324311122A555970110CF2
:10312400120E9970DA70012385F80432BDE8F0813B
:103134000220BDE8F081F8B505460F4641B9D0F844
:103144000C62A6B1D0F814329E4228BF01260FE0CB
:10315400FFF7CCFE012846D9441C02D14FF0FF30C2
:10316400F8BDD5F8143298423ED33E4600E001261D
:103174003446D5F8143201349C4204D3012E01D8CC
:103184000020F8BD022421462846FFF7AFFE30B1E7
:10319400411CE3D0012826D0B442EAD1F0E76FF015
:1031A400704221462846FFF750FFD0B97FB9D5F8C1
:1031B4001032C5F80C425A1C11D0013BC5F810322C
:1031C40095F8053243F0010385F8053207E02246FD
:1031D40039462846FFF739FF0028E8D001E02046A9
:1031E400F8BD0128BAD00120F8BD2DE9F843B0F8A4
:1031F40006620136B3B204460F4613B90420BDE893
:10320400F883D0F81032002BF8D016F00F086FD1E5
:10321400D0F80C120133C0F81032D0F8000221B9F2
:10322400B0F808329E42E9D262E090F80232013BE3
:1032340013EA16135CD1FFF759FE0128054602D89C
:103244000220BDE8F883421C02D10120BDE8F883C6
:10325400D4F80002D0F814329D4240D3002FCDD0D0
:10326400D4F80C12FFF767FF054600284BD001285D
:10327400E6D0431CE9D0D4F80002FFF727FC074648
:103284000028E2D101464FF40072D4F80002FFF79F
:10329400FBFAD4F8002229461046FFF719FE4FF036
:1032A4000109C2F82C02D4F8003293F802229742A2
:1032B40010D283F80492D4F80002FFF707FC002828
:1032C400C3D1D4F80022D2F82C320133C2F82C3204
:1032D4000137E8E7D3F82C22D71BC3F82C72C4F8C3
:1032E4000C522946D4F80002FFF7F2FDC4F810028C
:1032F400D4F80032A4F8066203EB4813C4F814327D
:103304000020BDE8F8830720BDE8F8832DE9F843E1
:103314000B782F2B04460D4601D05C2B00D10135D0
:103324000026C4F808622B781F2B01D9604F55E0A2
:1033340031462046FFF73BFEC4F81462BDE8F8832B
:103344005C2B4BD0D4F8186220210B223046FFF7B7
:103354009BFA4FF0000E08F1FF39F446082173463A
:1033640019F8012F202A0CF1010C3ED8212A08EB70
:103374000C0534BF04220022BEF1000F78D030784F
:10338400E52804BF05203070082904BF9B00DBB288
:1033940003F00301012903F00C0308BF42F01002FB
:1033A400042B08BF42F00802F27200212046FFF706
:1033B400FEFD80B3D4F81832DB7A00284DD15A07C9
:1033C40074D4D4F81412CB7ADB064ED5D4F8003278
:1033D40093F80002FFF743FBC4F808022B782F2B65
:1033E400A84605F10105ABD1F8E72F2ABED05C2A27
:1033F400BCD02E2A53D071453AD9100648BF803A22
:103404002C4D44BFBA5C43F0030315F8010F90B38D
:103414008242FAD12CE0D4F81012D4F80002FFF75B
:10342400B7FB0028C6D1D4F814321A789AB1DA7AE4
:1034340011070BD4D4F8182203F10B0E7345B9D03D
:1034440013F8016B12F8011B8E42F7D000212046BD
:10345400FFF7CBFEADE70420ACE7042826D113F038
:10346400040F08BF0520BDE8F8830520BDE8F883F4
:103474000620BDE8F883A2F14100192802D843F0E0
:10348400020307E0A2F1610019289EBF203A43F02D
:103494000103D2B206F80E200EF1010E60E70829EE
:1034A400E6D19B008E46DBB20B2159E7BDE8F883D9
:1034B400BC5300086153000838B500210546FFF7E6
:1034C40076FD044670BBD5F81012D5F80002FFF75C
:1034D4005FFB044630BBD5F814321B78E52B1AD1B8
:1034E400D5F81012D5F80002FFF752FB0446E0B9F4
:1034F40001462022D5F81402FFF7C6F90B22D5F8AD
:103504001812D5F81402FFF7B5F9D5F800320122E4
:1035140083F8042209E0002BE2D001212846FFF7BA
:1035240064FECEE7042C08BF0724204638BD0129D9
:1035340070B504460D4601D8022070BDD0F814328F
:103544009942F9D2D4F814329D4205D22946204634
:10355400FFF7CCFC064608B9002070BD0128EBD06B
:10356400411C14D0002229462046FFF76EFD78B98D
:10357400D4F810325A1C08D00133C4F8103294F82D
:10358400053243F0010384F805323546DAE70120B9
:1035940070BD00007FB5019004A8009140F8041D9F
:1035A4001646FFF72DFA051E24DB154B53F825406C
:1035B40019467CB1134B1A68944204BF00221A6066
:1035C400DB689C4208BF0F4A4FF0000308BFD3607A
:1035D40084F80032019810B1002380F8003241F8D9
:1035E400250050B1012E07D10022694601A8FFF73A
:1035F40019FB02E00B2000E0002004B070BD00BF06
:1036040048000020300000202DE9F041ADF50E7D8A
:10361400174601910646002800F0A6800023C0F852
:10362400003202F01E0201A986A8FFF7FBFA002867
:1036340040F0AD8003AB01998C9306A8FFF766FEBA
:1036440007F01F048B9D50B945B114F01E0F14BF31
:103654000121002106A8FFF71FF900E0062017F05A
:103664001C0F44D058B1042840F091804A4B1A688A
:10367400002A7BD0DB68002B40F0888076E0EB7A70
:1036840013F0110F7ED17F0778D420073CD501F0C9
:103694007DF803120027A873EB73030C000EEF727E
:1036A4002F776F77AF77EF772B746874869B2946F3
:1036B40093F80002FFF7D3F9AF76EF762F756F75A5
:1036C400869B012283F804220746D8B10146184696
:1036D400D3F82C82FFF72BFF002858D18698013F9E
:1036E400C0F80C724146FFF753FA48B14FE0002886
:1036F4004DD1EB7ADA0643D4B80701D5DA0741D4C1
:10370400230701D544F02004869B14F0FE0FD3F860
:103714002C32C6F81C32C6F8205214BF01210021F5
:1037240006A8FFF7F1F8C6F8280268B386F806423F
:10373400869F002486F8074297F800022946FFF77F
:103744008EF9C6F81002EB69C6F80C32B7F80632E7
:10375400C6F80842C6F81842C6F82442C6F80072F1
:10376400A6F80432204612E0092010E006A8FFF76C
:10377400A3FE60B944F008048B9D86E7082006E0A8
:10378400042004E0072002E0022000E012200DF5EE
:103794000E7DBDE8F08100BF300000202DE9F84F18
:1037A40098460023C8F8003005460F461446FFF734
:1037B4003FF9002840F0B58095F80702002840F052
:1037C400B08095F80632D80740F1AA80D5F80C32BB
:1037D400D5F80802181A844228BF0446002C00F0C9
:1037E4009C80D5F80812C1F30803002B7AD1D5F8D0
:1037F400000290F8029209F1FF3909EA512919F0FF
:10380400FF091BD111B9D5F810020AE0D5F824320A
:103814001BB12846FFF7E0F803E0D5F81412FFF7D0
:1038240065FB012801D8022002E0411C04D10120DB
:1038340085F80702BDE8F88FC5F81402D5F800B280
:10384400D5F814125846FFF743FB0028EBD0660A5C
:1038540000EB090A23D09BF802329BF8010209EB22
:1038640006029A4288BFC9EB0306334652463946DC
:10387400FEF76CFF0028DAD195F806325A060CD50B
:10388400D5F81802CAEB0000864206D94FF400723C
:10389400294607EB4020FEF7EDFF760230E0D5F82D
:1038A400182292451CD095F806325B060DD50123EB
:1038B40029469BF80102FEF757FF0028B7D195F877
:1038C400063223F0400385F80632D5F800020123BE
:1038D4005246294690F80102FEF738FF0028A6D187
:1038E400C5F818A2D5F80812C1F30801C1F500768D
:1038F400A64228BF2646324629443846FEF7BAFF78
:10390400D5F808323344C5F80832D8F800303344C7
:103914003744C8F80030A41B60E72046BDE8F88FA0
:103924000720BDE8F88F2DE9F84F98460023C8F822
:10393400003004460F461646FFF77AF8002840F098
:10394400DD8094F80702002840F0D88094F806320D
:10395400990740F1D280D4F80832DE425DD3D4F81E
:103964000832D4F80C22934240F2BE80C4F80C32E0
:10397400BAE0D4F80812C1F30803002B40F09F808A
:10398400D4F8000290F8029209F1FF3909EA5129AA
:1039940019F0FF0944D094F806325B0667D4D4F8D2
:1039A40000B2D4F814125846FFF792FA00284CD00B
:1039B400750A00EB090A6DD09BF802329BF80102EC
:1039C40009EB05029A4288BFC9EB03052B46524610
:1039D4003946FEF7C9FE00283BD1D4F81812CAEBC9
:1039E40001018D420CD94FF4007207EB41212046AE
:1039F400FEF740FF94F8063223F0400384F80632C1
:103A04006D02D4F808322B44C4F80832D8F80030D8
:103A14002B442F44C8F80030761B002EA9D19EE712
:103A240019B9D4F8101271B908E0D4F824321BB1D2
:103A34002046FEF7D1FF03E0D4F81412FFF77BFB16
:103A4400014600288BD0012901D1022002E04A1C42
:103A540004D1012084F80702BDE8F88FD4F81032AD
:103A6400C4F81412002B96D1C4F8101293E7D4F8BA
:103A74000002D4F8182290F8010201232146FEF72F
:103A840073FE0028E5D194F8063223F0400384F84D
:103A9400063284E7D4F818329A450ED0D4F80822B6
:103AA400D4F80C329A4208D20123524621469BF89C
:103AB4000102FEF74BFE0028CBD1C4F818A2D4F8BB
:103AC4000802C0F30800C0F50075B54228BF3546AA
:103AD4002A4639462044FEF7CDFE94F8063243F0D8
:103AE400400384F806328CE794F8063243F020034E
:103AF40084F806320020BDE8F88F0720BDE8F88F6F
:103B04000A2973B504460E4602D10D21FFF7F8FFCA
:103B14006368002B14DB5D1C23443C2D1E730BDDFA
:103B240001AB2A4604F10C012068FFF7FCFE019B5F
:103B34005D1B18BF4FF0FF35A36865600133A360B8
:103B440002B070BD70B50446FEF772FF00285DD167
:103B540094F8063203F0200202F0FF00002A55D048
:103B64005B0611D5D4F80002D4F8182290F80102AB
:103B740001232146FEF7F8FD002845D194F80632CA
:103B840023F0400384F80632D4F81C12D4F800025F
:103B9400FEF7FEFF0646C8BBD4F82052EB7A43F08A
:103BA4002003EB72D4F80C322B77D4F80C321B12AE
:103BB4006B77B4F80E32AB7794F80F32EB77D4F816
:103BC4001032AB761A121B0C2B751B12EA766B752E
:103BD40000F0DCFD0312A875EB75030C000E2B76C8
:103BE4006876AE74EE7494F8063223F0200384F8F9
:103BF4000632D4F80032012283F80422D4F80002F9
:103C0400BDE87040FEF769BF012070BD70BD10B5FE
:103C14000446FFF797FF50B92046FEF709FF30B975
:103C2400D4F82802FEF7BCFE08B9C4F8000210BD9F
:103C34002DE9F04704460D46FEF7FAFE002840F051
:103C4400458194F80702002840F04081D4F82432DA
:103C5400002B00F089806A1C3CD1D4F81062D3F8A0
:103C640000A003F1040902254EB337464FF00008C3
:103C74003946D4F80002FFF739F9012808F10108A0
:103C840001D8022002E0431C04D1012084F8070279
:103C9400BDE8F0877B1C98420746E9D00235AA4567
:103CA40021BF4B4643F8088BC9F804609946D4F801
:103CB4000032D3F81432984201D20646D5E7D4F83C
:103CC400243255451D6000F200810020C9F800002F
:103CD400BDE8F087D4F80C02854228BF0546C4F835
:103CE4000852002D00F0EE806F1E39462046FEF784
:103CF40073FED4F80062C4F8140201463046FFF79C
:103D0400E7F80028BDD0C5F30805002D00F0DA80DF
:103D140096F80212D4F81822013901EA57210D1835
:103D2400954200F0CF8094F8063259060DD5012350
:103D3400214696F80102FEF717FD0028A5D194F854
:103D4400063223F0400384F80632D4F8000201233B
:103D54002A46214690F80102FEF7F8FC002894D187
:103D6400C4F81852BDE8F087D4F80C329D4205D946
:103D740094F8062212F0020F08BF1D460022D4F860
:103D84000832C4F80822002D00F08E80D4F8000216
:103D940090F8026276027BB1013B6A1EB3FBF6F136
:103DA400B2FBF6F28A4207D372421340C4F80832D7
:103DB400ED1AD4F814120FE0D4F8101251B9FFF729
:103DC400BAF9012801463FF45CAF431C3FF45DAFF0
:103DD400C4F81002C4F8141201BB002538E094F8AA
:103DE4000632D4F800029F071BD5FFF7A4F9014659
:103DF400D8B14A1C3FF449AF01297FF642AFD4F849
:103E04000032D3F814329942BFF43BAFD4F80832ED
:103E1400C4F814123344C4F80832AD1BB542DED8DA
:103E240004E0FFF763F80146E3E73546D4F80832C7
:103E34002B44C4F80832C5F30803002BCDD0D4F8C2
:103E44000002FFF745F800283FF41BAF00EB5525AF
:103E5400D4F80832C3F3080333B3D4F818229542D4
:103E640022D094F806325B0610D5D4F80002012360
:103E7400214690F80102FEF777FC00287FF405AF95
:103E840094F8063223F0400384F80632D4F8000292
:103E940001232A46214690F80102FEF757FC002828
:103EA4007FF4F3AEC4F81852D4F80832D4F80C22D4
:103EB400934281BFC4F80C3294F8063243F02003D5
:103EC40084F806320020BDE8F0871120BDE8F087B1
:103ED4002DE9F04F87B0012903908A46164600F277
:103EE400818203A8FEF78CFD0028C0F27D82C54BB9
:103EF40053F82040002C00F079820023C7B284F8E4
:103F040000323846FEF712FCC20700F17182430703
:103F140000F1708205AA01213846FEF733FC08B18E
:103F2400012082E2059A7F2AFAD9BAF1000F14BF60
:103F34004FF000094FF03F09731EC9EB02023342F0
:103F4400059202D1002E40F05782AF4D00234FF46A
:103F5400FA61B2FBF1F135F81300814201D2013369
:103F6400F9E7AA4931F81360B6F5007F01D3760A60
:103F740000E01EB1812E28BF802600E0012640F615
:103F8400F573B2FBF6F59D4240F23B824FF6F573B2
:103F94009D4240F24582AD0005F2072500236D0ADB
:103FA4004FF0030801934FF0200B0BEB0903009330
:103FB400019B0099EB180B44C9EB060119448A4292
:103FC40001D20E2031E204AA032138460293FEF7FF
:103FD400D9FB029B20B9049A013AB2F5004F01D3F0
:103FE40001220492049A511E19445242B8F1030F5B
:103FF40002EA0102A2EB030308BF009A049302BF82
:10400400D2189B441346059A0CBF0093ED180199EE
:10401400CBEB02035B1BB8F1020FA3EB0103B3FB71
:10402400F6F3029305D1029940F6F5739942C8D983
:1040340012E0B8F1030F06D1029A4FF6F5739A42D3
:10404400BFD90C230DE0B8F1010F05D1B2F5803FC3
:104054002CBF0623012304E0B2F5803F2CBF0623C6
:104064000423BAF1000F46D14FF4007251462046A2
:10407400FEF70AFC059A84F8C231FE2309EB02011B
:1040840084F8C33143F6C163B1FBF3F18B0843F009
:104094003F0384F8C4313F2384F8C631131284F8F3
:1040A400CB31130C84F8CC315523012084F8CA2178
:1040B40084F8FE31120EAA2384F8BF0184F8C001EB
:1040C400049184F8C51184F8CD2184F8FF3184F873
:1040D400C1A1034684F8C7A184F8C8A184F8C9A182
:1040E400524621463846FEF73FFB00287FF418AFBE
:1040F4004FF0F80A01E04FF0F00A4FF4007200218B
:104104002046FEF7C1FB0B2241492046FEF7B2FBD5
:104114000023B8F1030FE372637418BF0223022271
:10412400A374059B22730122B3F5803F22744FEAE6
:10413400232221BF84F8203084F821201A0C1B0E7E
:1041440034BFE37484F8233084F80EB04FF03F0397
:104154004FEA2B2B84F80FB023764FF0000B4FF06F
:10416400FF0334BF227584F82220A376667384F893
:1041740015A084F819B084F81BB084F81C9084F856
:104184001DB084F81EB084F81FB000F0FFFAB8F137
:10419400030F04904FEA20224FEA10433CD184F8E5
:1041A40045302B1284F825302B0C84F826302B0E46
:1041B40084F82730022384F82C30012384F830302B
:1041C400062384F83230802384F8430084F8403096
:1041D400000E292384F8442084F8460084F82450EF
:1041E40084F82DB084F82EB084F82FB084F831B060
:1041F40084F833B084F842301322064904F14700AE
:1042040020E000BF480000204C530008A6530008DB
:10421400715300087D53000884F829302B12E3758C
:10422400802384F8270084F82430000E2923804951
:1042340084F8282084F82A00A57584F826301322EF
:1042440004F12B00FEF716FB552384F8FE31AA2354
:1042540084F8FF314A46012321463846FEF784FAA2
:1042640000287FF45DAEB8F1030F06D1012309F1F4
:10427400060221463846FEF777FA4FF40072002111
:104284002046FEF701FBB8F1030F13D0694BB8F1D8
:10429400010F18BF6FF0FF0343EA0A03049323706E
:1042A400049B1B126370BDF81230A3709DF8133089
:1042B400E37016E06AF0FF0304932370049B1B125F
:1042C4006370BDF81230A3709DF81330E370FF23C0
:1042D40023716371A371E37123726372A3720F2359
:1042E400E372009B009A214603F1010A3846012338
:1042F400FEF73AFA014600287FF412AE4FF400723A
:104304002046FEF7C1FA01230493049B9D420FD972
:1043140001235246214638460AF1010BFEF724FADE
:1043240000287FF4FDAD049B01330493DA46ECE7E7
:10433400019BB8F1030F18BF1E4652465644012391
:1043440021463846551CFEF70FFA00287FF4E8ADE5
:10435400B5422A46F3D1B8F1030F3AD15223237060
:1043640063706123A37084F8E731029B84F8ED0144
:10437400013B4122E27084F8E621C3F3072284F86A
:10438400E83184F8E9211A0C1B0E84F8EB3102237E
:1043940084F8EC31552384F8FE31AA23722184F881
:1043A400FF31012384F8E41184F8E51184F8EA214B
:1043B40084F8EE0109EB030284F8EF012146384644
:1043C400FEF7D2F9012309F1070221463846FEF728
:1043D400CBF9002211463846FEF7D4F9003018BF55
:1043E400012022E0132020E00B201EE00C201CE022
:1043F40003201AE00A2018E0B6F5007FBFF4B7AD39
:10440400B8E505EB450501356D0803354FF00108A6
:1044140005F2FF1520236D0A01934FF0010BC4E54B
:1044240002356D004FF00208F2E707B0BDE8F08FE7
:104434009153000800FFFF002DE9F3410646904622
:10444400044600254F1EBD4213DA01AB0122694622
:104454004046FFF7A3F9019B012B0AD19DF80030D8
:104464000D2BF0D0621C0A2B237005F101051446B4
:10447400E9D100239D4214BF30461846237002B090
:10448400BDE8F08100B595B000230191014601A873
:1044940002930393FFF734FB029A002A02DA4FF0E7
:1044A400FF300BE06B4604A90198FFF73CFA0028A3
:1044B400F5D1009B029A9A42F1D1039815B05DF8A8
:1044C40004FB000030B50F4B5C7A012C18D85D7AE0
:1044D400EDB200245C555D7A03EB85056860587A7B
:1044E400184402725A7AD2B2501CC0B258723A239B
:1044F40030324B702F230A708B70CC70204630BD45
:10450400012030BD4C0000200022FFF7DBBF00007B
:1045140073B50E461546114902220446FFF774F896
:10452400C8B9D4F80C122046FFF782FB01AB042271
:1045340031462046FFF7F7F901AB0422294620460D
:10454400FFF7F1F921460A20FFF79CFF2046FFF709
:104554005EFB022000E0002002B070BD3C54000865
:1045640007B501208DF807009DF8073083420CD170
:1045740007490848FDF7ECFA38B94FF400610548DB
:10458400FDF7ACFC003018BF012003B05DF804FB5C
:10459400B80000201001002007B505990191049985
:1045A400009101460448FDF746FD003018BF012084
:1045B40003B05DF804FB00BF1001002007B50599A6
:1045C40001910499009101460448FDF7EDFD003086
:1045D40018BF012003B05DF804FB00BF10010020E8
:1045E4000148FDF7CDBE00BF10010020014601487F
:1045F400FDF76CB91001002001224FF4007101484D
:10460400FCF704B80004024007B54FF47A73009332
:10461400054A064802235021FCF740F9322003B032
:104624005DF804EBFBF78ABE0B0000206400002059
:1046340013B50446FBF7EEFD4FF47A73009322465C
:1046440083B250210248FCF729F902B010BD00BF23
:104654006400002070B5264B8CB007AA03F1100645
:10466400154618685968144603C40833B3422246F1
:10467400F7D1204A1B88106851681F4A238002AB77
:1046840003C31068516804AB03C3906818604FF407
:104694007A742846FFF7CCFF0323184A009450216C
:1046A4001748FCF7FBF802A8FBF7B4FD02AA83B293
:1046B400009450211248FCF7F1F80323114A0094A6
:1046C40050210F48FCF7EAF804A8FBF7A3FD04AA5D
:1046D40083B2009450210A48FCF7E0F800940223C6
:1046E400094A07485021FCF7D9F80CB070BD00BF47
:1046F400495400085B540008635400080500002076
:1047040064000020080000200D00002037B5114C83
:1047140011484FF47A75FFF78BFF03230F4A009576
:1047240050212046FCF7BAF80D48FFF781FF032318
:104734000C4A009550212046FCF7B0F80A48FFF7D0
:1047440077FF00950223094A50212046FCF7A6F87A
:1047540003B030BD640000206F5400080500002041
:104764008054000808000020935400080D00002025
:1047740008B503490348FFF7C7FE034B187008BD8B
:104784005D000020385300085C00002000207047C2
:104794002DE9F04F8DB00024494B02941A6BDFF8D9
:1047A4002C81484FDFF828A142F080021A631A6B6B
:1047B40002F080020292029A03941A6B42F00402FD
:1047C4001A631A6B02F004020392039A04941A6B9C
:1047D40042F001021A631A6B02F001020492049A75
:1047E40005941A6B42F002021A631A6B02F0020279
:1047F4000592059A06941A6B42F008021A631B6B21
:1048040003F0080301250226069307A94046069BE8
:1048140007954FF0A40B08940996FBF717FE07A918
:104824004046CDF81CB0089509950A94FBF70EFE96
:1048340007A93846079609960894FBF707FE0996D8
:10484400214E089440F2054307A930460793FBF72D
:10485400FDFD4FF4C05307A938460793019308950B
:1048640009940A94FBF7F2FD07A950464FF4007926
:104874000795089509950A94FBF7E8FD07A93046C2
:10488400CDF81C90089509940A94FBF7DFFD2A469D
:1048940059464046FBF7BAFE019B22461946384664
:1048A400FBF7B4FE2A4629465046FBF7AFFE2246E4
:1048B40049463046FBF7AAFE0DB0BDE8F08F00BFB5
:1048C4000038024000000240000402400008024098
:1048D400000C024008B50C480C4B4CF2503E80E8EA
:1048E40008404FF4804200238360C3600261436147
:1048F4008361C3610362FBF763FF18B1BDE808403D
:1049040000F00CBC08BD00BF64000020005400404F
:104914007FB50268104B9A421BD14FF4C0730193C8
:1049240012230293012303930323049304230DEB23
:1049340003010A480593FBF789FD00230093084B04
:104944001A6C42F400121A641B6C03F400130093F3
:10495400009B07B05DF804FB0054004000040240D3
:104964000038024010B50120FBF7E8FC012195480E
:10497400FBF746FE012804463AD1002280219248E2
:10498400FBF744FE002220218F48FBF73FFE002264
:1049940004218D48FBF73AFE21468B48FBF730FE95
:1049A400012800F0ED804FF480618848FBF728FE71
:1049B400012800F0E78021468448FBF721FE012806
:1049C40000F0E28002218248FBF71AFE012800F081
:1049D400DD80224680217C48FBF718FE22462021F8
:1049E4007948FBF713FE224604217748FBF70EFEB5
:1049F4000120FBF7A3FC80217348FBF701FE01288B
:104A040004463AD1014600226E48FBF7FFFD00221E
:104A140020216D48FBF7FAFD002204216A48FBF7C8
:104A2400F5FD21466848FBF7EBFD012800F0B08056
:104A34004FF480616548FBF7E3FD012800F0AA808C
:104A440021466248FBF7DCFD012800F0A580022125
:104A54005F48FBF7D5FD012800F0A08022462146DF
:104A64005848FBF7D3FD224620215748FBF7CEFDDB
:104A7400224604215448FBF7C9FD0120FBF75EFCE4
:104A840020215148FBF7BCFD0128044636D10146DC
:104A940000224C48FBF7BAFD002280214A48FBF76C
:104AA400B5FD002204214848FBF7B0FD21464648E5
:104AB400FBF7A6FD012873D04FF480614348FBF750
:104AC4009FFD01286ED021464048FBF799FD01283F
:104AD4006AD002213E48FBF793FD012866D02246A6
:104AE40021463848FBF792FD224680213648FBF7E1
:104AF4008DFD224604213448FBF788FD0120FBF795
:104B04001DFC04213048FBF77BFD012804464FD1EE
:104B1400014600222B48FBF779FD002280212A4818
:104B2400FBF774FD002220212748FBF76FFD214687
:104B34002548FBF765FD01283CD04FF480612348EC
:104B4400FBF75EFD012837D021462048FBF758FDCE
:104B5400012833D002211E48FBF752FD01282FD033
:104B6400224621461748FBF751FD2246802116486C
:104B7400FBF74CFD224620211348FBF747FD17E0C5
:104B8400144810BD144810BD144810BD144810BD7D
:104B9400144810BD144810BD144810BD144810BD6D
:104BA400144810BD144810BD144810BD144810BD5D
:104BB400144810BD144810BD144810BD144810BD4D
:104BC400144810BD000C02400008024000040240DA
:104BD40000000240A2540008A4540008A65400088F
:104BE400A8540008AA540008AC540008AE540008A5
:104BF400B0540008B2540008B4540008B654000875
:104C0400B8540008C0540008BA5400087B53000884
:104C1400BC540008BE54000810B5ACB000212C4BA5
:104C240001911A6C42F080521A641B6C294A03F0F9
:104C340080530193019B0291136823F4404343F48E
:104C44008043136013684FF4800203F440430F92CF
:104C54000822029310924FF4A872029B119202232D
:104C64000124072208A8089409940E93129313921E
:104C74001493FCF79DFA014600B1FEE70F2305905B
:104C84000690079003A803930494FBF7DDFE00B19C
:104C9400FEE74FF440732A90269015A81593FBF76E
:104CA400A5FF044600B1FEE7FBF782FF4FF47A73D9
:104CB400B0FBF3F0FBF7A2FB0420FBF7B5FB2246A5
:104CC40021464FF0FF30FBF759FB2CB010BD00BF5D
:104CD40000380240007000402DE9F041ADF5926DBE
:104CE40000238DF804308DF81030FBF7FFFAFFF73E
:104CF40093FFFFF74DFD00F013FAFFF739FDFFF7BF
:104D0400E9FD00F097FAFFF777FC994B1C782CBB70
:104D1400FFF77AFC9748FFF78BFC4FF47A70FBF7A8
:104D24000DFB2246944998A8FEF734FC044628B1AA
:104D3400FFF76AFC9148FFF77BFCFEE7FFF764FC92
:104D44008F4D9048FFF774FC4FF47A70FBF7F6FA36
:104D54002F46FFF759FCFFF7D9FC1EE0FFF754FC80
:104D64008948FFF765FCFEE7F4B1884B984269D0A7
:104D74008749884200F03481864988420DD0A84290
:104D84000BD0904240F09081984206D0804B9842DC
:104D940003D0012C00F09D810024FFF7E3FD7E4B3E
:104DA40098421A461AD1DFE7FFF72EFC7B48FFF73B
:104DB4003FFC4FF47A70FBF7C1FA012278490DA841
:104DC400FEF722FC30B1FFF71FFC7648FFF730FCFA
:104DD400754873E1FFF718FC744824E0744B98425B
:104DE400C3D1002CC1D1FFF70FFC7248FFF720FCA0
:104DF4004FF47A70FBF7A2FA224621465E48FFF789
:104E040067F818B1FFF700FC6B4857E10A226449C0
:104E14000DA8FEF7F9FB18B1FFF7F6FB67484DE163
:104E2400FFF7F2FB6648FFF703FC4FF4FA60FBF769
:104E340085FAFFF7E9FBFFF70DFC0DA8FEF7E7FE87
:104E44000124AAE7012C97D1FFF7DEFB5D48FFF7A9
:104E5400EFFB00238DF804308DF810308DF81C30F2
:104E64004FF4FA70FBF76AFAFFF77CFD8046C8201E
:104E7400FBF764FAA8450BD0414601A800F036FAC6
:104E8400FFF7C2FB4F48FFF7D3FB01A8FFF7D0FBA6
:104E940001A8FBF7BFF90328E6D94FF4FA70FBF732
:104EA4004DFAFFF7B1FB4848FFF7C2FBFFF75AFD85
:104EB4008046C820FBF742FAB84506D0414604A80C
:104EC40000F014FA4148FFF7B3FB04A8FBF7A2F97A
:104ED4000328EBD901A907A800F008FA04A907A838
:104EE40000F004FA4FF47A70FBF728FA01222C49F7
:104EF4000DA8FEF789FB40BB0DAA09210AA8FFF7FC
:104F04009BFADFF8D88038B107A90AA8FBF778F92B
:104F140046460028F0D12E4EFFF776FB3046FFF7C9
:104F240087FB46450AD12B48FDF74DFA4FF47A70BA
:104F3400FBF704FA2748FDF751FA03E04FF47A70BF
:104F4400FBF7FCF94FF001080AE0FFF75DFB22488C
:104F5400FFF76EFB4FF47A70FBF7F0F94FF002089D
:104F64000DA8FEF754FEB8F1020F3FF479AF96E0B6
:104F74005C000020CF5400085D000020DD540008D0
:104F8400C0540008F4540008FF540008A254000858
:104F9400AA540008A3530008A85400081055000898
:104FA4003C540008235500083855000846550008AD
:104FB400B054000857550008675500087755000895
:104FC400865500089C550008A3550008BA540008EB
:104FD400C254000870010020B7550008AA55000803
:104FE400012C7FF4C9AEFFF70FFB3E48FFF720FB0F
:104FF40000234FF4FA708DF804308DF81030FBF76D
:105004009DF9FFF7AFFC8046C820FBF797F9A84548
:105014000BD0414601A800F069F9FFF7F5FA3148D1
:10502400FFF706FB01A8FFF703FB01A8FBF7F2F863
:105034000328E6D94FF4FA70FBF780F9FFF7E4FA96
:105044002948FFF7F5FAFFF78DFC8046C820FBF7E7
:1050540075F9B84506D0414604A800F047F923483D
:10506400FFF7E6FA04A8FBF7D5F80328EBD94FF4C9
:105074007A70FBF763F904AA01A90DA8FFF748FAAF
:10508400022803D1FFF7C0FA194802E0FFF7BCFA7F
:105094001848FFF7CDFA4FF47A70FBF74FF9FFF792
:1050A400B3FAFFF7D7FA78E6134A90423FF46CAEAE
:1050B400002C7FF469AEFFF7A7FA1048FFF7B8FA9F
:1050C4004FF4FA60FBF73AF9FFF79EFAFFF71EFB7D
:1050D40063E6FFF799FA0948FFF7AAFA4FF4FA6072
:1050E400DBE700BF9C550008A3550008BA5400082C
:1050F400C7550008D2550008B0540008E25500080E
:10510400044B834204D14FF480510348FBF782BA25
:10511400704700BF7001002000000240FEE700005D
:10512400054B064A1A6000225A609A60DA601A61D6
:105134005A617D229A61704710010020002C0140C1
:10514400F0B50268154B9A4287B025D1002403F5C7
:10515400863300945A6C124842F400625A645B6CC1
:10516400039403F400630093009B02274FF4F85365
:1051740003260C2501A90193029704960595FBF7D4
:1051840065F904230DEB0301064801930297039488
:1051940004960595FBF75AF907B0F0BD002C0140C1
:1051A40000080240000C024008B50320FBF7D4F8C5
:1051B400002211466FF00B00FBF7E0F800221146C5
:1051C4006FF00A00FBF7DAF8002211466FF00900CD
:1051D400FBF7D4F8002211466FF00400FBF7CEF879
:1051E400002211466FF00300FBF7C8F800221146B5
:1051F4006FF00100FBF7C2F8002211464FF0FF30B8
:10520400BDE80840FBF7BAB87047FEE7FEE7FEE7E3
:10521400FEE770477047704708B5FBF781F8BDE8B3
:105224000840FBF70EB900000148FDF7F0B800BFD5
:105234007001002009480A4908B54FF47A7380E8E0
:105244000A000A2200238360C2600361FDF7E6F9C5
:1052540018B1BDE80840FFF761BF08BD7001002028
:10526400001C004007B50D4B02689A4213D100227E
:1052740003F507330192196C41F0800119641B6C2A
:1052840003F0800301932C201146019BFBF776F871
:105294002C20FBF7A7F803B05DF804FB001C0040CA
:1052A40070B50E4B0E4CE41AA41000251E46A54200
:1052B40004D056F8253098470135F8E700F026F871
:1052C400084C094BE41AA41000251E46A54204D03C
:1052D40056F8253098470135F8E770BDF8550008B1
:1052E400F8550008FC550008F855000810B50246AA
:1052F400134601321C78002CFAD1013B11F8012B22
:1053040003F8012F002AF9D110BD0000F8B500BF41
:10531400F8BC08BC9E467047F8B500BFF8BC08BC92
:045324009E467047EA
:105328000000000001020304010203040607080943
:10533800A5270008C5270008E52700080528000854
:105348002528000800040002000180004000200019
:1053580010000800040002000000222A2B2C3A3B0F
:105368003C3D3E3F5B5D7C7F00EBFE904D53444FE0
:1053780053352E30004E4F204E414D4520202020E1
:105388004641543332202020004E4F204E414D4597
:10539800202020204641542020202020000000808A
:1053A8000040002000100008004000200010000805
:1053B80000040002808182838485868788898A8B9D
:1053C8008C8D8E8F90919293949596979899AD9B8A
:1053D8008C9DAE9FA021A2A3A4A5A6A7A8A9AAAB0D
:1053E800ACADAEAFB0B1B2B3B4B5B6B7B8B9BABB7D
:1053F800BCBDBEBFC0C1C2C3C4C5C6C7C8C9CACB6D
:10540800CCCDCECFD0D1D2D3D4D5D6D7D8D9DADB5C
:10541800DCDDDEDFC0C1C2C3C4C5C6C7C8C9CACBCC
:10542800CCCDCECFD0D1D2D3D4D5D6F7D8D9DADB1C
:10543800DCDDDE9F64617461626173652E7478746B
:105448000020202042414E434F20444520444144FF
:105458004F530031204C6F67696E003420436164FC
:1054680061737472617200202020494E494349419A
:105478004C495A4143414F0041202D205574696CD5
:10548800697A617220417475616C0042202D204355
:1054980072696172204E6F766F00310032003300FE
:1054A800410034003500360042003700380039002A
:1054B80043002A00230044004500417574656E745A
:1054C800696361646F2100534420456E636F6E7495
:1054D8007261646F004572726F20496E6963696119
:1054E8006C697A6163616F20464154005344204DD2
:1054F8006F6E7461646F004E41444120454E434FC6
:105508004E545241444F2100436172726567616E87
:10551800646F20426173652E2E2E004261736520F0
:10552800496E6578697374656E7465212020200062
:105538004372696520756D6120626173650042611F
:105548007365204C6F63616C697A61646121004303
:105558007269616E646F204E6F766F2E2E2E004535
:1055680072726F20466F726D61746163616F00457E
:1055780072726F2061627269722061727100496E85
:105588007374616C6163616F20436F6E636C7569DE
:10559800646121004C6F67696E3A0053656E6861FB
:1055A8003A00496E6578697374656E7465210041C7
:1055B8007271204E2045636F6E747261646F004390
:1055C80061646173747261646F004E616F2043613E
:1055D800646173747261646F210046756E63616FF4
:1055E80020496E646973706F6E6976656C0000009F
:0455F800E9010008BD
:0455FC00C5010008DD
:105600000024F40001FE4540FE4514FE51FE4A0010
:0400000508000229C4
:00000001FF
